{
  "_format": "hh-sol-artifact-1",
  "contractName": "PancakeSwap",
  "sourceName": "contracts/Pancake.sol",
  "abi": [
    {
      "inputs": [],
      "stateMutability": "nonpayable",
      "type": "constructor"
    },
    {
      "inputs": [],
      "name": "deposit",
      "outputs": [
        {
          "internalType": "bool",
          "name": "",
          "type": "bool"
        }
      ],
      "stateMutability": "payable",
      "type": "function"
    },
    {
      "inputs": [
        {
          "internalType": "int256",
          "name": "_amount",
          "type": "int256"
        }
      ],
      "name": "getBalance",
      "outputs": [
        {
          "internalType": "bool",
          "name": "",
          "type": "bool"
        }
      ],
      "stateMutability": "payable",
      "type": "function"
    },
    {
      "inputs": [],
      "name": "getContractBalance",
      "outputs": [
        {
          "internalType": "uint256",
          "name": "",
          "type": "uint256"
        }
      ],
      "stateMutability": "view",
      "type": "function"
    },
    {
      "inputs": [],
      "name": "owner",
      "outputs": [
        {
          "internalType": "address",
          "name": "",
          "type": "address"
        }
      ],
      "stateMutability": "view",
      "type": "function"
    }
  ],
  "bytecode": "0x608060405234801561001057600080fd5b50336000806101000a81548173ffffffffffffffffffffffffffffffffffffffff021916908373ffffffffffffffffffffffffffffffffffffffff16021790555061052a806100606000396000f3fe60806040526004361061003f5760003560e01c80636f9fb98a146100445780638da5cb5b1461006f578063d0e30db01461009a578063da0a75c8146100b8575b600080fd5b34801561005057600080fd5b506100596100e8565b60405161006691906103da565b60405180910390f35b34801561007b57600080fd5b5061008461017f565b6040516100919190610364565b60405180910390f35b6100a26101a3565b6040516100af919061037f565b60405180910390f35b6100d260048036038101906100cd9190610268565b61024c565b6040516100df919061037f565b60405180910390f35b60008060009054906101000a900473ffffffffffffffffffffffffffffffffffffffff1673ffffffffffffffffffffffffffffffffffffffff163373ffffffffffffffffffffffffffffffffffffffff1614610179576040517f08c379a00000000000000000000000000000000000000000000000000000000081526004016101709061039a565b60405180910390fd5b47905090565b60008054906101000a900473ffffffffffffffffffffffffffffffffffffffff1681565b6000670de0b6b3a764000034106101ef576040517f08c379a00000000000000000000000000000000000000000000000000000000081526004016101e6906103ba565b60405180910390fd5b34600160003373ffffffffffffffffffffffffffffffffffffffff1673ffffffffffffffffffffffffffffffffffffffff168152602001908152602001600020600082825461023e9190610406565b925050819055506001905090565b6000919050565b600081359050610262816104dd565b92915050565b60006020828403121561027a57600080fd5b600061028884828501610253565b91505092915050565b61029a8161045c565b82525050565b6102a98161046e565b82525050565b60006102bc6022836103f5565b91507f4f6e6c79204f776e6572732063616e2063616c6c20746869732066756e63746960008301527f6f6e0000000000000000000000000000000000000000000000000000000000006020830152604082019050919050565b6000610322601f836103f5565b91507f706c65617365206465706f736974206174206c656173742069206574686572006000830152602082019050919050565b61035e816104a4565b82525050565b60006020820190506103796000830184610291565b92915050565b600060208201905061039460008301846102a0565b92915050565b600060208201905081810360008301526103b3816102af565b9050919050565b600060208201905081810360008301526103d381610315565b9050919050565b60006020820190506103ef6000830184610355565b92915050565b600082825260208201905092915050565b6000610411826104a4565b915061041c836104a4565b9250827fffffffffffffffffffffffffffffffffffffffffffffffffffffffffffffffff03821115610451576104506104ae565b5b828201905092915050565b600061046782610484565b9050919050565b60008115159050919050565b6000819050919050565b600073ffffffffffffffffffffffffffffffffffffffff82169050919050565b6000819050919050565b7f4e487b7100000000000000000000000000000000000000000000000000000000600052601160045260246000fd5b6104e68161047a565b81146104f157600080fd5b5056fea26469706673582212206201e3f05b2d3126fd10f2b40405c42caba01969697be0c08082a46a9f9752db64736f6c63430008000033",
  "linkReferences": {},
  "deployedLinkReferences": {}
}