{
  "_format": "hh-sol-artifact-1",
  "contractName": "PancakeSwap",
  "sourceName": "contracts/Pancake.sol",
  "abi": [
    {
      "inputs": [],
      "stateMutability": "nonpayable",
      "type": "constructor"
    },
    {
      "inputs": [],
      "name": "deposit",
      "outputs": [
        {
          "internalType": "bool",
          "name": "",
          "type": "bool"
        }
      ],
      "stateMutability": "payable",
      "type": "function"
    },
    {
      "inputs": [],
      "name": "getContractBalance",
      "outputs": [
        {
          "internalType": "uint256",
          "name": "",
          "type": "uint256"
        }
      ],
      "stateMutability": "view",
      "type": "function"
    },
    {
      "inputs": [],
      "name": "owner",
      "outputs": [
        {
          "internalType": "address",
          "name": "",
          "type": "address"
        }
      ],
      "stateMutability": "view",
      "type": "function"
    },
    {
      "inputs": [],
      "name": "withdrawMoney",
      "outputs": [],
      "stateMutability": "nonpayable",
      "type": "function"
    }
  ],
  "bytecode": "0x608060405234801561001057600080fd5b50336000806101000a81548173ffffffffffffffffffffffffffffffffffffffff021916908373ffffffffffffffffffffffffffffffffffffffff1602179055506105d4806100606000396000f3fe60806040526004361061003f5760003560e01c80636f9fb98a146100445780638da5cb5b1461006f578063ac4460021461009a578063d0e30db0146100b1575b600080fd5b34801561005057600080fd5b506100596100cf565b60405161006691906104a5565b60405180910390f35b34801561007b57600080fd5b50610084610166565b604051610091919061042f565b60405180910390f35b3480156100a657600080fd5b506100af61018a565b005b6100b961028f565b6040516100c6919061044a565b60405180910390f35b60008060009054906101000a900473ffffffffffffffffffffffffffffffffffffffff1673ffffffffffffffffffffffffffffffffffffffff163373ffffffffffffffffffffffffffffffffffffffff1614610160576040517f08c379a000000000000000000000000000000000000000000000000000000000815260040161015790610465565b60405180910390fd5b47905090565b60008054906101000a900473ffffffffffffffffffffffffffffffffffffffff1681565b60008054906101000a900473ffffffffffffffffffffffffffffffffffffffff1673ffffffffffffffffffffffffffffffffffffffff163373ffffffffffffffffffffffffffffffffffffffff1614610218576040517f08c379a000000000000000000000000000000000000000000000000000000000815260040161020f90610465565b60405180910390fd5b60008060009054906101000a900473ffffffffffffffffffffffffffffffffffffffff1690508073ffffffffffffffffffffffffffffffffffffffff166108fc6102606100cf565b9081150290604051600060405180830381858888f1935050505015801561028b573d6000803e3d6000fd5b5050565b6000655af3107a400034116102d9576040517f08c379a00000000000000000000000000000000000000000000000000000000081526004016102d090610485565b60405180910390fd5b34600160003373ffffffffffffffffffffffffffffffffffffffff1673ffffffffffffffffffffffffffffffffffffffff168152602001908152602001600020600082825461032891906104d1565b925050819055506001905090565b61033f81610527565b82525050565b61034e81610539565b82525050565b60006103616022836104c0565b91507f4f6e6c79204f776e6572732063616e2063616c6c20746869732066756e63746960008301527f6f6e0000000000000000000000000000000000000000000000000000000000006020830152604082019050919050565b60006103c76024836104c0565b91507f706c65617365206465706f736974206174206c6561737420302e30303032206560008301527f74686572000000000000000000000000000000000000000000000000000000006020830152604082019050919050565b61042981610565565b82525050565b60006020820190506104446000830184610336565b92915050565b600060208201905061045f6000830184610345565b92915050565b6000602082019050818103600083015261047e81610354565b9050919050565b6000602082019050818103600083015261049e816103ba565b9050919050565b60006020820190506104ba6000830184610420565b92915050565b600082825260208201905092915050565b60006104dc82610565565b91506104e783610565565b9250827fffffffffffffffffffffffffffffffffffffffffffffffffffffffffffffffff0382111561051c5761051b61056f565b5b828201905092915050565b600061053282610545565b9050919050565b60008115159050919050565b600073ffffffffffffffffffffffffffffffffffffffff82169050919050565b6000819050919050565b7f4e487b7100000000000000000000000000000000000000000000000000000000600052601160045260246000fdfea2646970667358221220c71550383bc229ade809951d3fc7ff9f5aed8ec5b33d4155ef02796bdfa55c5b64736f6c63430008000033",
  "linkReferences": {},
  "deployedLinkReferences": {}
}